01#BPA#2022040022320001121491SESMA                         SORRIR00000000000000                                        ESISREG-III
029431039202204223208501010101020066000000009EXT
029431039202204223208501020101020074000000106EXT
029431039202204223208501030101020082000000022EXT
029431039202204223208501040101020090000000056EXT
029431039202204223208501050301060061000000010EXT
029431039202204223208501060301100152000000030EXT
029431039202204223208501070307010015000000033EXT
029431039202204223208501080307010031000000183EXT
029431039202204223208501090307020010000000013EXT
029431039202204223208501100307020029000000042EXT
029431039202204223208501110307030040000000288EXT
029431039202204223208501120307030059000001319EXT
029431039202204223208501130307040151000000076EXT
029431039202204223208501140414020120000000020EXT
029431039202204223208501150414020138000000162EXT
029431039202204223212501160101020090000000200EXT
029431039202204223212501170301060061000000004EXT
029431039202204223212501180307010015000000012EXT
029431039202204223212501190307020010000000056EXT
029431039202204223212501200307020029000000113EXT
029431039202204223212502010307020045000000024EXT
029431039202204223212502020307020053000000017EXT
029431039202204223212502030307020061000000029EXT
029431039202204223212502040307020070000000017EXT
029431039202204223212502050307020096000000001EXT
029431039202204223212502060307020100000000001EXT
029431039202204223212502070307020118000000001EXT
029431039202204223236502080101020066000000019EXT
029431039202204223236502090101020074000000083EXT
029431039202204223236502100101020090000000013EXT
029431039202204223236502110307010015000000026EXT
029431039202204223236502120307020037000000011EXT
029431039202204223236502130307020070000000008EXT
029431039202204223236502140307030040000000086EXT
029431039202204223236502150307030059000000056EXT
029431039202204223236502160414020120000000023EXT
029431039202204223236502170414020405000000008EXT
029431039202204223248502180101010028000000100EXT
029431039202204223248502190101020074000000024EXT
029431039202204223248502200101020090000000007EXT
029431039202204223248503010301100152000000006EXT
029431039202204223248503020307030024000000016EXT
029431039202204223248503030307030032000000799EXT
029431039202204223248503040307030040000000027EXT
029431039202204223248503050414020154000000017EXT
029431039202204223248503060414020162000000004EXT
029431039202204223256503070101020090000000002EXT
029431039202204223256503080307010031000000011EXT
029431039202204223256503090307030040000000001EXT
029431039202204223256503100307040070000000073EXT
029431039202204223256503110307040089000000016EXT
029431039202204223256503120307040143000000081EXT
029431039202204223256503130307040151000000062EXT
029431039202204223256503140307040160000000119EXT
029431039202204223260503150204010179000000474EXT
029431039202204223268503160301060061000000015EXT
029431039202204223268503170301100152000000025EXT
029431039202204223268503180307010058000000044EXT
029431039202204223268503190404020488000000001EXT
029431039202204223268503200414010361000000004EXT
029431039202204223268504010414020057000000061EXT
029431039202204223268504020414020065000000009EXT
029431039202204223268504030414020073000000086EXT
029431039202204223268504040414020138000000014EXT
029431039202204223268504050414020219000000028EXT
029431039202204223268504060414020278000000079EXT
029431039202204223268504070414020294000000001EXT
029431039202204223268504080414020359000000001EXT
029431039202204223268504090414020367000000001EXT
029431039202204223268504100414020383000000007EXT
029431039202204223268504110414020405000000057EXT
029431039202204223280504120101020074000000004EXT
029431039202204223280504130101020090000000039EXT
029431039202204223280504140307010015000000030EXT
029431039202204223280504150307010031000000194EXT
029431039202204223280504160307030040000000005EXT
029431039202204223280504170307040151000000008EXT
029431039202204223288504180101020066000000001EXT
029431039202204223288504190101020074000000019EXT
029431039202204223288504200101020090000000005EXT
029431039202204223288505010301100152000000002EXT
029431039202204223288505020307010031000000005EXT
029431039202204223288505030307030040000000054EXT
029431039202204223288505040307030059000000028EXT
029431039202204223288505050414020120000000013EXT
029431039202204223288505060414020138000000008EXT
029431039202204223208505070301010048002000001EXT
029431039202204223208505080301010048003000002EXT
029431039202204223208505090301010048005000005EXT
029431039202204223208505100301010048006000005EXT
029431039202204223208505110301010048007000011EXT
029431039202204223208505120301010048008000013EXT
029431039202204223208505130301010048009000010EXT
029431039202204223208505140301010048010000006EXT
029431039202204223208505150301010048011000006EXT
029431039202204223208505160301010048012000004EXT
029431039202204223208505170301010048013000013EXT
029431039202204223208505180301010048014000013EXT
029431039202204223208505190301010048015000011EXT
029431039202204223208505200301010048016000016EXT
029431039202204223208506010301010048017000013EXT
029431039202204223208506020301010048018000008EXT
029431039202204223208506030301010048019000010EXT
029431039202204223208506040301010048020000013EXT
029431039202204223208506050301010048021000015EXT
029431039202204223208506060301010048022000020EXT
029431039202204223208506070301010048023000014EXT
029431039202204223208506080301010048024000013EXT
029431039202204223208506090301010048025000020EXT
029431039202204223208506100301010048026000014EXT
029431039202204223208506110301010048027000018EXT
029431039202204223208506120301010048028000022EXT
029431039202204223208506130301010048029000016EXT
029431039202204223208506140301010048030000017EXT
029431039202204223208506150301010048031000008EXT
029431039202204223208506160301010048032000018EXT
029431039202204223208506170301010048033000019EXT
029431039202204223208506180301010048034000014EXT
029431039202204223208506190301010048035000018EXT
029431039202204223208506200301010048036000014EXT
029431039202204223208507010301010048037000013EXT
029431039202204223208507020301010048038000018EXT
029431039202204223208507030301010048039000014EXT
029431039202204223208507040301010048040000014EXT
029431039202204223208507050301010048041000026EXT
029431039202204223208507060301010048042000016EXT
029431039202204223208507070301010048043000013EXT
029431039202204223208507080301010048044000014EXT
029431039202204223208507090301010048045000017EXT
029431039202204223208507100301010048046000014EXT
029431039202204223208507110301010048047000016EXT
029431039202204223208507120301010048048000015EXT
029431039202204223208507130301010048049000025EXT
029431039202204223208507140301010048050000020EXT
029431039202204223208507150301010048051000019EXT
029431039202204223208507160301010048052000016EXT
029431039202204223208507170301010048053000018EXT
029431039202204223208507180301010048054000023EXT
029431039202204223208507190301010048055000022EXT
029431039202204223208507200301010048056000011EXT
029431039202204223208508010301010048057000009EXT
029431039202204223208508020301010048058000018EXT
029431039202204223208508030301010048059000015EXT
029431039202204223208508040301010048060000016EXT
029431039202204223208508050301010048061000016EXT
029431039202204223208508060301010048062000015EXT
029431039202204223208508070301010048063000014EXT
029431039202204223208508080301010048064000008EXT
029431039202204223208508090301010048065000014EXT
029431039202204223208508100301010048066000019EXT
029431039202204223208508110301010048067000010EXT
029431039202204223208508120301010048068000011EXT
029431039202204223208508130301010048069000006EXT
029431039202204223208508140301010048070000005EXT
029431039202204223208508150301010048071000004EXT
029431039202204223208508160301010048072000008EXT
029431039202204223208508170301010048073000001EXT
029431039202204223208508180301010048074000003EXT
029431039202204223208508190301010048075000002EXT
029431039202204223208508200301010048076000002EXT
029431039202204223208509010301010048077000002EXT
029431039202204223208509020301010048078000003EXT
029431039202204223208509030301010048079000001EXT
029431039202204223208509040301010048080000001EXT
029431039202204223208509050301010048081000001EXT
029431039202204223208509060301010048082000001EXT
029431039202204223212509070301010048008000003EXT
029431039202204223212509080301010048010000002EXT
029431039202204223212509090301010048011000006EXT
029431039202204223212509100301010048012000009EXT
029431039202204223212509110301010048013000002EXT
029431039202204223212509120301010048014000007EXT
029431039202204223212509130301010048015000005EXT
029431039202204223212509140301010048016000005EXT
029431039202204223212509150301010048017000007EXT
029431039202204223212509160301010048018000008EXT
029431039202204223212509170301010048019000007EXT
029431039202204223212509180301010048020000009EXT
029431039202204223212509190301010048021000008EXT
029431039202204223212509200301010048022000005EXT
029431039202204223212510010301010048023000012EXT
029431039202204223212510020301010048024000006EXT
029431039202204223212510030301010048025000007EXT
029431039202204223212510040301010048026000012EXT
029431039202204223212510050301010048027000011EXT
029431039202204223212510060301010048028000004EXT
029431039202204223212510070301010048029000008EXT
029431039202204223212510080301010048030000004EXT
029431039202204223212510090301010048031000005EXT
029431039202204223212510100301010048032000004EXT
029431039202204223212510110301010048033000010EXT
029431039202204223212510120301010048034000004EXT
029431039202204223212510130301010048035000010EXT
029431039202204223212510140301010048036000003EXT
029431039202204223212510150301010048037000009EXT
029431039202204223212510160301010048038000007EXT
029431039202204223212510170301010048039000004EXT
029431039202204223212510180301010048040000009EXT
029431039202204223212510190301010048041000009EXT
029431039202204223212510200301010048042000006EXT
029431039202204223212511010301010048043000002EXT
029431039202204223212511020301010048044000006EXT
029431039202204223212511030301010048045000006EXT
029431039202204223212511040301010048046000005EXT
029431039202204223212511050301010048047000001EXT
029431039202204223212511060301010048048000010EXT
029431039202204223212511070301010048049000006EXT
029431039202204223212511080301010048050000006EXT
029431039202204223212511090301010048051000004EXT
029431039202204223212511100301010048052000006EXT
029431039202204223212511110301010048053000003EXT
029431039202204223212511120301010048054000007EXT
029431039202204223212511130301010048055000003EXT
029431039202204223212511140301010048056000003EXT
029431039202204223212511150301010048057000002EXT
029431039202204223212511160301010048058000004EXT
029431039202204223212511170301010048059000002EXT
029431039202204223212511180301010048060000005EXT
029431039202204223212511190301010048061000004EXT
029431039202204223212511200301010048062000003EXT
029431039202204223212512010301010048063000003EXT
029431039202204223212512020301010048064000001EXT
029431039202204223212512030301010048066000002EXT
029431039202204223212512040301010048067000002EXT
029431039202204223212512050301010048068000001EXT
029431039202204223212512060301010048076000001EXT
029431039202204223212512070301010048080000001EXT
029431039202204223220512080301010048016000001EXT
029431039202204223220512090301010048021000001EXT
029431039202204223220512100301010048026000002EXT
029431039202204223220512110301010048028000001EXT
029431039202204223220512120301010048029000001EXT
029431039202204223220512130301010048031000001EXT
029431039202204223220512140301010048032000001EXT
029431039202204223220512150301010048033000002EXT
029431039202204223220512160301010048035000002EXT
029431039202204223220512170301010048053000001EXT
029431039202204223220512180301010048055000003EXT
029431039202204223220512190301010048058000001EXT
029431039202204223220512200301010048060000002EXT
029431039202204223220513010301010048061000001EXT
029431039202204223220513020301010048078000001EXT
029431039202204223236513030301010048001000001EXT
029431039202204223236513040301010048002000005EXT
029431039202204223236513050301010048003000004EXT
029431039202204223236513060301010048004000010EXT
029431039202204223236513070301010048005000009EXT
029431039202204223236513080301010048006000032EXT
029431039202204223236513090301010048007000023EXT
029431039202204223236513100301010048008000019EXT
029431039202204223236513110301010048009000023EXT
029431039202204223236513120301010048010000011EXT
029431039202204223236513130301010048011000004EXT
029431039202204223236513140301010048012000002EXT
029431039202204223240513150301010048005000001EXT
029431039202204223240513160301010048006000001EXT
029431039202204223240513170301010048007000002EXT
029431039202204223240513180301010048008000001EXT
029431039202204223240513190301010048009000004EXT
029431039202204223240513200301010048010000002EXT
029431039202204223240514010301010048011000002EXT
029431039202204223240514020301010048012000011EXT
029431039202204223240514030301010048013000010EXT
029431039202204223240514040301010048014000013EXT
029431039202204223240514050301010048015000012EXT
029431039202204223240514060301010048016000013EXT
029431039202204223240514070301010048017000023EXT
029431039202204223240514080301010048018000017EXT
029431039202204223240514090301010048019000006EXT
029431039202204223240514100301010048020000013EXT
029431039202204223240514110301010048021000005EXT
029431039202204223240514120301010048022000005EXT
029431039202204223240514130301010048023000006EXT
029431039202204223240514140301010048024000006EXT
029431039202204223240514150301010048025000007EXT
029431039202204223240514160301010048026000005EXT
029431039202204223240514170301010048027000004EXT
029431039202204223240514180301010048028000003EXT
029431039202204223240514190301010048029000002EXT
029431039202204223240514200301010048030000001EXT
029431039202204223240515010301010048031000002EXT
029431039202204223240515020301010048032000007EXT
029431039202204223240515030301010048033000007EXT
029431039202204223240515040301010048034000004EXT
029431039202204223240515050301010048035000003EXT
029431039202204223240515060301010048036000008EXT
029431039202204223240515070301010048037000005EXT
029431039202204223240515080301010048038000002EXT
029431039202204223240515090301010048039000007EXT
029431039202204223240515100301010048040000002EXT
029431039202204223240515110301010048041000003EXT
029431039202204223240515120301010048042000006EXT
029431039202204223240515130301010048043000003EXT
029431039202204223240515140301010048044000002EXT
029431039202204223240515150301010048045000003EXT
029431039202204223240515160301010048046000002EXT
029431039202204223240515170301010048047000001EXT
029431039202204223240515180301010048049000002EXT
029431039202204223240515190301010048051000002EXT
029431039202204223240515200301010048052000001EXT
029431039202204223240516010301010048054000001EXT
029431039202204223240516020301010048055000001EXT
029431039202204223240516030301010048058000001EXT
029431039202204223240516040301010048062000001EXT
029431039202204223248516050301010048011000001EXT
029431039202204223248516060301010048012000001EXT
029431039202204223248516070301010048013000001EXT
029431039202204223248516080301010048015000001EXT
029431039202204223248516090301010048018000001EXT
029431039202204223248516100301010048019000004EXT
029431039202204223248516110301010048020000002EXT
029431039202204223248516120301010048021000001EXT
029431039202204223248516130301010048022000001EXT
029431039202204223248516140301010048023000001EXT
029431039202204223248516150301010048024000002EXT
029431039202204223248516160301010048026000002EXT
029431039202204223248516170301010048028000004EXT
029431039202204223248516180301010048029000002EXT
029431039202204223248516190301010048030000004EXT
029431039202204223248516200301010048031000005EXT
029431039202204223248517010301010048032000001EXT
029431039202204223248517020301010048033000003EXT
029431039202204223248517030301010048034000002EXT
029431039202204223248517040301010048035000004EXT
029431039202204223248517050301010048036000004EXT
029431039202204223248517060301010048037000003EXT
029431039202204223248517070301010048038000003EXT
029431039202204223248517080301010048039000003EXT
029431039202204223248517090301010048040000004EXT
029431039202204223248517100301010048041000005EXT
029431039202204223248517110301010048042000003EXT
029431039202204223248517120301010048043000004EXT
029431039202204223248517130301010048044000006EXT
029431039202204223248517140301010048045000004EXT
029431039202204223248517150301010048046000002EXT
029431039202204223248517160301010048047000007EXT
029431039202204223248517170301010048048000004EXT
029431039202204223248517180301010048049000004EXT
029431039202204223248517190301010048050000008EXT
029431039202204223248517200301010048051000002EXT
029431039202204223248518010301010048052000001EXT
029431039202204223248518020301010048053000005EXT
029431039202204223248518030301010048054000003EXT
029431039202204223248518040301010048055000003EXT
029431039202204223248518050301010048056000002EXT
029431039202204223248518060301010048057000005EXT
029431039202204223248518070301010048058000003EXT
029431039202204223248518080301010048059000003EXT
029431039202204223248518090301010048060000003EXT
029431039202204223248518100301010048061000003EXT
029431039202204223248518110301010048063000001EXT
029431039202204223248518120301010048064000002EXT
029431039202204223248518130301010048065000001EXT
029431039202204223248518140301010048066000001EXT
029431039202204223248518150301010048067000001EXT
029431039202204223248518160301010048068000001EXT
029431039202204223248518170301010048069000002EXT
029431039202204223248518180301010048070000001EXT
029431039202204223248518190301010048075000001EXT
029431039202204223248518200301010048077000001EXT
029431039202204223256519010301010048013000001EXT
029431039202204223256519020301010048014000001EXT
029431039202204223256519030301010048015000002EXT
029431039202204223256519040301010048018000003EXT
029431039202204223256519050301010048023000003EXT
029431039202204223256519060301010048024000001EXT
029431039202204223256519070301010048025000002EXT
029431039202204223256519080301010048027000002EXT
029431039202204223256519090301010048029000005EXT
029431039202204223256519100301010048030000003EXT
029431039202204223256519110301010048031000004EXT
029431039202204223256519120301010048033000001EXT
029431039202204223256519130301010048034000002EXT
029431039202204223256519140301010048035000003EXT
029431039202204223256519150301010048036000002EXT
029431039202204223256519160301010048037000002EXT
029431039202204223256519170301010048038000001EXT
029431039202204223256519180301010048039000001EXT
029431039202204223256519190301010048040000002EXT
029431039202204223256519200301010048041000001EXT
029431039202204223256520010301010048042000007EXT
029431039202204223256520020301010048043000004EXT
029431039202204223256520030301010048044000002EXT
029431039202204223256520040301010048045000003EXT
029431039202204223256520050301010048046000003EXT
029431039202204223256520060301010048047000005EXT
029431039202204223256520070301010048048000004EXT
029431039202204223256520080301010048049000008EXT
029431039202204223256520090301010048050000004EXT
029431039202204223256520100301010048051000014EXT
029431039202204223256520110301010048052000006EXT
029431039202204223256520120301010048053000005EXT
029431039202204223256520130301010048054000010EXT
029431039202204223256520140301010048055000004EXT
029431039202204223256520150301010048056000002EXT
029431039202204223256520160301010048057000006EXT
029431039202204223256520170301010048058000017EXT
029431039202204223256520180301010048059000001EXT
029431039202204223256520190301010048060000010EXT
029431039202204223256520200301010048061000015EXT
029431039202204223256521010301010048062000020EXT
029431039202204223256521020301010048063000015EXT
029431039202204223256521030301010048064000011EXT
029431039202204223256521040301010048065000013EXT
029431039202204223256521050301010048066000006EXT
029431039202204223256521060301010048067000011EXT
029431039202204223256521070301010048068000016EXT
029431039202204223256521080301010048069000020EXT
029431039202204223256521090301010048070000010EXT
029431039202204223256521100301010048071000007EXT
029431039202204223256521110301010048072000009EXT
029431039202204223256521120301010048073000005EXT
029431039202204223256521130301010048074000007EXT
029431039202204223256521140301010048075000010EXT
029431039202204223256521150301010048076000003EXT
029431039202204223256521160301010048077000005EXT
029431039202204223256521170301010048078000002EXT
029431039202204223256521180301010048079000009EXT
029431039202204223256521190301010048080000001EXT
029431039202204223256521200301010048082000001EXT
029431039202204223256522010301010048083000004EXT
029431039202204223256522020301010048085000001EXT
029431039202204223256522030301010048086000004EXT
029431039202204223256522040301010048089000003EXT
029431039202204223256522050301010048091000003EXT
029431039202204223268522060301010048013000002EXT
029431039202204223268522070301010048014000001EXT
029431039202204223268522080301010048016000003EXT
029431039202204223268522090301010048017000002EXT
029431039202204223268522100301010048018000005EXT
029431039202204223268522110301010048019000005EXT
029431039202204223268522120301010048020000003EXT
029431039202204223268522130301010048021000005EXT
029431039202204223268522140301010048022000003EXT
029431039202204223268522150301010048023000005EXT
029431039202204223268522160301010048024000004EXT
029431039202204223268522170301010048025000006EXT
029431039202204223268522180301010048026000006EXT
029431039202204223268522190301010048027000004EXT
029431039202204223268522200301010048028000006EXT
029431039202204223268523010301010048029000005EXT
029431039202204223268523020301010048030000007EXT
029431039202204223268523030301010048031000001EXT
029431039202204223268523040301010048032000004EXT
029431039202204223268523050301010048033000005EXT
029431039202204223268523060301010048034000004EXT
029431039202204223268523070301010048035000002EXT
029431039202204223268523080301010048037000001EXT
029431039202204223268523090301010048038000002EXT
029431039202204223268523100301010048040000003EXT
029431039202204223268523110301010048041000001EXT
029431039202204223268523120301010048042000002EXT
029431039202204223268523130301010048043000003EXT
029431039202204223268523140301010048044000003EXT
029431039202204223268523150301010048045000001EXT
029431039202204223268523160301010048046000001EXT
029431039202204223268523170301010048047000002EXT
029431039202204223268523180301010048048000001EXT
029431039202204223268523190301010048049000007EXT
029431039202204223268523200301010048050000001EXT
029431039202204223268524010301010048051000001EXT
029431039202204223268524020301010048052000001EXT
029431039202204223268524030301010048053000002EXT
029431039202204223268524040301010048054000001EXT
029431039202204223268524050301010048057000001EXT
029431039202204223268524060301010048058000002EXT
029431039202204223268524070301010048059000002EXT
029431039202204223268524080301010048060000004EXT
029431039202204223268524090301010048061000003EXT
029431039202204223268524100301010048062000003EXT
029431039202204223268524110301010048063000002EXT
029431039202204223268524120301010048064000001EXT
029431039202204223268524130301010048065000002EXT
029431039202204223268524140301010048066000003EXT
029431039202204223268524150301010048067000003EXT
029431039202204223268524160301010048069000001EXT
029431039202204223268524170301010048070000001EXT
029431039202204223268524180301010048071000001EXT
029431039202204223268524190301010048072000001EXT
029431039202204223268524200301010048076000001EXT
029431039202204223268525010301010048078000002EXT
029431039202204223268525020301010048094000001EXT
029431039202204223280525030301010048010000001EXT
029431039202204223280525040301010048012000002EXT
029431039202204223280525050301010048013000003EXT
029431039202204223280525060301010048014000002EXT
029431039202204223280525070301010048015000005EXT
029431039202204223280525080301010048016000002EXT
029431039202204223280525090301010048017000006EXT
029431039202204223280525100301010048018000003EXT
029431039202204223280525110301010048019000006EXT
029431039202204223280525120301010048021000003EXT
029431039202204223280525130301010048022000009EXT
029431039202204223280525140301010048023000002EXT
029431039202204223280525150301010048024000003EXT
029431039202204223280525160301010048025000004EXT
029431039202204223280525170301010048026000005EXT
029431039202204223280525180301010048027000004EXT
029431039202204223280525190301010048028000006EXT
029431039202204223280525200301010048029000004EXT
029431039202204223280526010301010048030000005EXT
029431039202204223280526020301010048031000003EXT
029431039202204223280526030301010048032000004EXT
029431039202204223280526040301010048033000007EXT
029431039202204223280526050301010048034000005EXT
029431039202204223280526060301010048035000004EXT
029431039202204223280526070301010048036000007EXT
029431039202204223280526080301010048037000004EXT
029431039202204223280526090301010048038000003EXT
029431039202204223280526100301010048039000012EXT
029431039202204223280526110301010048040000013EXT
029431039202204223280526120301010048041000007EXT
029431039202204223280526130301010048042000004EXT
029431039202204223280526140301010048043000005EXT
029431039202204223280526150301010048044000010EXT
029431039202204223280526160301010048045000007EXT
029431039202204223280526170301010048046000005EXT
029431039202204223280526180301010048047000007EXT
029431039202204223280526190301010048048000006EXT
029431039202204223280526200301010048049000013EXT
029431039202204223280527010301010048050000008EXT
029431039202204223280527020301010048051000007EXT
029431039202204223280527030301010048052000007EXT
029431039202204223280527040301010048053000006EXT
029431039202204223280527050301010048054000011EXT
029431039202204223280527060301010048055000009EXT
029431039202204223280527070301010048056000009EXT
029431039202204223280527080301010048057000005EXT
029431039202204223280527090301010048058000004EXT
029431039202204223280527100301010048059000006EXT
029431039202204223280527110301010048060000007EXT
029431039202204223280527120301010048061000003EXT
029431039202204223280527130301010048062000007EXT
029431039202204223280527140301010048063000004EXT
029431039202204223280527150301010048064000005EXT
029431039202204223280527160301010048065000006EXT
029431039202204223280527170301010048066000004EXT
029431039202204223280527180301010048067000002EXT
029431039202204223280527190301010048068000002EXT
029431039202204223280527200301010048070000002EXT
029431039202204223280528010301010048071000002EXT
029431039202204223280528020301010048075000001EXT
029431039202204223280528030301010048076000001EXT
029431039202204223280528040301010048081000001EXT
029431039202204223288528050301010048001000001EXT
029431039202204223288528060301010048002000001EXT
029431039202204223288528070301010048003000004EXT
029431039202204223288528080301010048004000007EXT
029431039202204223288528090301010048005000002EXT
029431039202204223288528100301010048006000005EXT
029431039202204223288528110301010048007000004EXT
029431039202204223288528120301010048008000005EXT
029431039202204223288528130301010048009000004EXT
029431039202204223288528140301010048010000003EXT
029431039202204223288528150301010048011000004EXT
029431039202204223288528160301010048013000003EXT
029431039202204223288528170301010048017000002EXT
029431039202204223288528180301010048018000002EXT
029431039202204223288528190301010048021000002EXT
029431039202204223288528200301010048022000001EXT
029431039202204223288529010301010048025000001EXT
029431039202204223288529020301010048026000001EXT
029431039202204223288529030301010048033000001EXT
029431039202204223288529040301010048037000002EXT
029431039202204223288529050301010048041000001EXT
029431039202204223288529060301010048044000001EXT
029431039202204223288529070301010048050000001EXT
03943103920220470000740040650122320820220401529080307010139706503339940192M211130Z00005400000101             EXTMANOEL DOMINGOS DOS SANTOS    1968031504    010                                65082585507TOME DE SOUSA                           1    VILA SAO LUIS                 98982814666                                        
03943103920220498001629006480622325620220401529090701070137700303993637331M210750Z46304400000101             EXTMOISES ARAUJO SILVA           1977120199    010                                65130000081TRINTA E TRES                 QUADRA    31   MAIOBAO                                                                          
03943103920220498001629006480622325620220401529100701070129700508508780451M211120Z46307700000101             EXTPAULO COSTA                   1944111001    010                                65110000081DOIS                                    37   RIBAMAR                       98982298691                                        
03943103920220498001629006480622325620220401529110701070137700508508780451M211120Z46307700000101             EXTPAULO COSTA                   1944111001    010                                65110000081DOIS                                    37   RIBAMAR                       98982298691                                        
03943103920220498001629006480622325620220401529120701070129704005343703566M211130Z46307200000101             EXTMANOEL DE JESUS FERREIRA      1950030101    010                                65043820100BOA ESPERANCA                           25   SALINA DO SACAVEM             98932234136                                        
03943103920220498001629006480622325620220401529130701070137704005343703566M211130Z46307200000101             EXTMANOEL DE JESUS FERREIRA      1950030101    010                                65043820100BOA ESPERANCA                           25   SALINA DO SACAVEM             98932234136                                        
03943103920220498001629006480622325620220401529140701070129707606221993497F211130Z46306500000101             EXTMARIA JOSE BATISTA DA SILVA   1956051602    010                                65055620079PIQUIZEIRO                              23   SÃO CRISTOVÃO                                                                  
03943103920220498001629006480622325620220401529150701070137707606221993497F211130Z46306500000101             EXTMARIA JOSE BATISTA DA SILVA   1956051602    010                                65055620079PIQUIZEIRO                              23   SÃO CRISTOVÃO                                                                  
03943103920220498001629006480622325620220401529160701070129709005898873714M211130Z46305800000101             EXTTORQUATO RODRIGUES            1963042004    010                                65076840081SANTA TERESA                            20   JARACATY                      98982571269                                        
03943103920220498001629006480622325620220401529170701070137709005898873714M211130Z46305800000101             EXTTORQUATO RODRIGUES            1963042004    010                                65076840081SANTA TERESA                            20   JARACATY                      98982571269                                        
03943103920220470960266356597322322020220401529180201010526706509335660093F210020K10 02600000101             EXTMYRELLE FERREIRA RIBEIRO      1996032704    010                                65042450081CONEGO LUZITANO                         S/N  CARAVELAS                     98991525622                                        
03943103920220498001628455364722325620220401529190307010120700003864294902F211130Z00 04300000101             EXTMARILEIA VALE MARTINS         1978112499    010                                65061670008CONTORNO                                08   RIO ANIL                      98991527980                                        
03943103920220498001628455364722325620220401529200307010120700003864294902F211130Z00 04300000101             EXTMARILEIA VALE MARTINS         1978112499    010                                65061670008CONTORNO                                08   RIO ANIL                      98991527980                                        
03943103920220498001628455364722325620220401530010307010120700208930505727F211130Z00 02300000101             EXTFABYELLE FERREIRA GOMES       1999030304    010                                65081261081SEIS DE ABRIL                 AP 103    S/N  VILA EMBRATEL                 98998885516                                        
03943103920220498001628455364722325620220401530020307010120702102735707296F211120Z00 05100000101             EXTMARINEIDE FRAZAO DOS INOCENTES1970083004    010                                65110000008ARTHUR CARVALHO               BC 08     101  MIRITIUA                      98986012052                                        
03943103920220498001627734189322328020220401530030307010120709006801356311F211130Z00 05200000101             EXTMARIA DO CARMO DE SOUSA MENDES1969041304    010                                65083406081DO ARIRI                                27   CIDADE NOVA                   98981347300                                        
03943103920220498001627726527522328020220401530040307010120700506789767959M211130Z00002800000101             EXTBRUNO DA SILVA FERREIRA       1993111599    010                                65000000999R BOA ESPERANCA                         53   J DEUS                        6133152425                                         
03943103920220498001627726527522328020220401530050307010120700506789767959M211130Z00002800000101             EXTBRUNO DA SILVA FERREIRA       1993111599    010                                65000000999R BOA ESPERANCA                         53   J DEUS                        6133152425                                         
03943103920220498001627726527522328020220401530060307010120704308593322195F211130Z00003800000101             EXTANA MARIA MARQUES PESTANA     1983090404    010                                65045856081SAO FRANCISCO DE ASSIS                  109  VILA LOBAO                    98987804978                                        
03943103920220498001627726527522328020220401530070307010120704308593322195F211130Z00003800000101             EXTANA MARIA MARQUES PESTANA     1983090404    010                                65045856081SAO FRANCISCO DE ASSIS                  109  VILA LOBAO                    98987804978                                        
03943103920220498001627726527522328020220401530080307010120707402093331878M210750Z00004900000101             EXTHILTEMAR FRAGA DA SILVA       1972102599    010                                65137000472DE MAIO                                 7    VL NOBRE                      6133152425                                         
03943103920220498001627726527522328020220401530090307010120707402093331878M210750Z00004900000101             EXTHILTEMAR FRAGA DA SILVA       1972102599    010                                65137000472DE MAIO                                 7    VL NOBRE                      6133152425                                         
03943103920220498001627726527522328020220401530100307010120708404204030765F211130Z00004500000101             EXTEDILANDIA RABELO SILVA        1976120101    010                                65081261081SEIS DE ABRIL                           10   VILA EMBRATEL                 98987520023                                        
03943103920220498001627726527522328020220401530110307010120708404204030765F211130Z00004500000101             EXTEDILANDIA RABELO SILVA        1976120101    010                                65081261081SEIS DE ABRIL                           10   VILA EMBRATEL                 98987520023                                        
03943103920220470040545020154122323620220401530120307010120702805660347669M211130Z00000900000101             EXTICARO ARTHUR NEVES MEDEIROS   2012072304    010                                65057783081UM                            QD 19     24   SAO RAIMUNDO                  9832215790                                         
03943103920220498001628137822422326820220401530130401010058700005374446201F211130Z00007100000101             EXTMARIA TERESA CANTANHEDE LIMA  1950101403    010                                65081515081SAO BENEDITO                            11   VILA EMBRATEL                 98988970643                                        
03943103920220498001628137822422326820220401530140401010058700007122485700F211130Z00001700000101             EXTANA CAROLINE DA SILVA COSTA   2004061499    010                                65043765008DOS FRANCESES 1/99998         BL 01     207  COHEB DO SACAVEM              98988200094                                        
03943103920220498001628137822422326820220401530150401010058700506184990055M211130Z00005000000101             EXTCELIO MAFRA LOBO              1971070202    010                                65031521508RAIMUNDO CORREIA                        07   MONTE CASTELO                 98997000433                                        
03943103920220498001628137822422326820220401530160401010058702801176404060F211130Z00003800000101             EXTFERNANDA SILVA COSTA          1984010902    010                                65050760079EPONINA CONDURU               QD 11     8    COHAB ANIL IV                 9832253269                                         
03943103920220498001628137822422326820220401530170201010526704501330551314M210750Z00001600000101             EXTBERNARDO AUGUSTO DA SILVA RIBE2005041404    010                                65130000081                                             ORQUIDEAS                     9832374797                                         
03943103920220498001628137822422326820220401530180401010058704501330551314M210750Z00001600000101             EXTBERNARDO AUGUSTO DA SILVA RIBE2005041404    010                                65130000081                                             ORQUIDEAS                     9832374797                                         
03943103920220470920322649563822324020220401530190307040127700809997748988F211130K07204300000101             EXTFERNANDA ALVES DE ARAUJO      1978061201    010                                65081451081DOS LIRIOS                    RESID RESE15   VILA EMBRATEL                 98989000105                                        
03943103920220470920322649563822324020220401530200307040127701705222855070F211130K07204000000101             EXTLIBIANE DUTRA LEITE           1981090804    010                                65030700081HUGO DA CUNHA MACHADO                   199  FATIMA                        98981887040                                        
03943103920220470920322649563822324020220401531010307040127702401507007229M211130K07201800000101             EXTMIKAEL WESLLEY SILVA DOS SANTO2004021701    010                                65020260999R CAMBOA                                402  CAMBOA                        6133152425                                         
03943103920220470920322649563822324020220401531020307040127706507345578398M211130K07202700000101             EXTCARLOS CASSIANO VERAS COELHO  1995032003    010                                65061640081OITO                                    107  BEQUIMÃO                     98985277096                                        
03943103920220470920322649563822324020220401531030307040127708207185508744F211130K07202400000101             EXTCARLA CASSIANA VERAS COELHO   1997061199    010                                65060345507MILITAR                                 03   CRUZEIRO DO ANIL              98985277096                                        
03943103920220470920322649563822324020220401531040307040127708903712691914F210750K07201700000101             EXTHELLEN CAROLINE MENDES DA SILV2005040103    010                                65130000081H                                       33   PARANA                        98985511877                                        
03943103920220470920322649563822324020220401531050307040127700009125539307F211130K07202000000101             EXTNATHALIA CARINE FIGUEIREDO REI2001113003    010                                65058776081PATATIVAS                               10   RECANTO DOS PASSAROS          98984309654                                        
03943103920220470920322649563822324020220401531060307040127700208481956026M211130K07201400000101             EXTLUCAS DO NASCIMENTO MADEIRA   2008012599    010                                65090000081OURIVEIS                                96   LIBERDADE                     98987042867                                        
03943103920220470920322649563822324020220401531070307040127703002858720273F211130K07201800000101             EXTTHAIS DOS SANTOS GOMES        2003061403    010                                65082514100DA UM                         QD4       4    VILA SAO LUIS                 98988586887                                        
03943103920220470920322649563822324020220401531080307040127703006853823574F211130K07201800000101             EXTGISELLE VITORIA COSTA MENDES  2004030204    010                                65057810081SAO JOSE                                6    JARDIM SAO RAIMUNDO           98987534424                                        
03943103920220498001627806408722326020220401531090204010225700401903695148M211130Z00 03900000101             EXTPEDRO BATISTA DO LAGO CORREA  1982062604    010                                65063732081ALTAIR ROSAS                  B         20   CRUZEIRO DO ANIL              98999913930                                        
03943103920220498001627806408722326020220401531100204010225700408405950444F210750Z00 02800000101             EXTHELENICE DE JESUS DA CRUZ FRAZ1993080303    010                                65130000081D                             Q 07      36   SITIO NATUREZA                98987853154                                        
03943103920220498001627806408722326020220401531110204010225700509769277053M211130Z00 06200000101             EXTALCIR IMIDIO DOS SANTOS       1960012304    010                                65044650081SAO SEBASTIAO                           13   COROADINHO                    21982806795                                        
03943103920220498001627806408722326020220401531120204010225700509996937054F211130Z00 03600000101             EXTANA REGINA SANTOS PIMENTA     1985090599    010                                65045480081DA FELICIDADE                           225  VILA PALMEIRA                 98981581532                                        
03943103920220498001627806408722326020220401531130204010225700604474062662F211130Z00 02300000101             EXTYANNE DA SILVA LIMA           1998090803    010                                65045410081EPITACIO CAFETEIRA                      115  SANTA CRUZ                    98982543766                                        
03943103920220498001627806408722326020220401531140204010225700802461635789F211130Z00 05600000101             EXTMARIA DOS SANTOS E SANTOS     1965100104    010                                65054040031DA MAIOBA                     BLC 49 APT402  FORQUILHA RESINDENCIAL IPES   98984811116                                        
03943103920220498001627806408722326020220401531150204010225702805651263768M211130Z00 05800000101             EXTSERGIO ROBERTO SILVA FARIAS   1963110699    010                                65070100999R 34                                    17   VINHAIS                       9832367134                                         
03943103920220498001627806408722326020220401531160204010225703403207524112F211120Z00 05300000101             EXTMARIA DE JESUS ERICEIRA AZEVED1968122404    010                                65110000081SETE                          A         761  VILA SARNEY FILHO             98988809249                                        
03943103920220498001627806408722326020220401531170204010225703601099089038F211130Z00 05800000101             EXTMARIA DO SOCORRO RIBEIRO VIANA1963070703    010                                65052380031DE RIBAMAR 1/99998            BL 14B APTS/N  MAIOBINHA - COND PRAIAS BELAS 98991820667                                        
03943103920220498001627806408722326020220401531180204010225704007134164370F211130Z00 01900000101             EXTANNE ELLEN NUNES PEREIRA      2002050899    010                                65090000081RUA GENIPARANA                QDA D     40   CIDADE OPERARIA               9888838032                                         
03943103920220498001627806408722326020220401531190204010225704508358797519F211130Z00 02200000101             EXTLARISSA CRISTINA SOARES ASSUNC1999072803    010                                65082485081DEZESSEIS                               S/N  VILA MAURO FECURY II          98988781525                                        
03943103920220498001627806408722326020220401531200204010225704508387774114M211130Z00 04400000101             EXTMARCOS LEANDRO LAGO PALHANO   1977111003    010                                65036002081C                                       14   VILA IVAR SALDANHA            98999067456                                        
03943103920220498001627806408722326020220401532010204010225704801044736941F211130Z00 03800000101             EXTKELLIANE CHAVES PEREIRA       1984012104    010                                65040854081FREI OSVALDO                            07   VILA DOS FRADES               9832715074                                         
03943103920220498001627806408722326020220401532020204010225706309132419180F210750Z00 04400000101             EXTMARIA AURINEIDE MOREIRA DOS SA1977052204    010                                65130000081BOM NEGOCIO                             S/N  CAJUEIRO                      6133152425                                         
03943103920220498001627806408722326020220401532030204010225706906156318939M211130Z00 01500000101             EXTRENAN SILVA RODRIGUES         2006052203    010                                65092316081PRINCIPAL                               S/N  QUEBRA POTE                   98999222999                                        
03943103920220498001627806408722326020220401532040204010225708705138276992F211130Z00 05300000101             EXTALEXANDRINA ABREU DA SILVA    1968122603    010                                65082265008JOSE SARNEY 1/99998           QD 47     16   SAO RAIMUNDO(ANJO DA GUARDA)  98988540139                                        
03943103920220498001628784267422320820220401532050307010120704107162590574F211130Z00003000000101             EXTJOSEANE ALEXANDRINA BOTENTUIT 1991062404    010                                65030390079DAGMAR DESTERRO                         51   FATIMA                                                                           
03943103920220498001628576129422320820220401532060307010120704605146355829F210960Z00004600000101             EXTJOSIANE PINHEIRO NUNES        1975100104    010                                65090000081PADRE POSIDONIO                         2872 CENTRO                        98988515786                                        
03943103920220498001628576129422320820220401532070307010120706706597060811F210540Z00004800000101             EXTMARIA DA CONCEICAO FERREIRA   1973122703    010                                65485000081PEDRO MATOS                             13   TORRE                         98991340603                                        
03943103920220498001628576129422320820220401532080307010120706706597060811F210540Z00004800000101             EXTMARIA DA CONCEICAO FERREIRA   1973122703    010                                65485000081PEDRO MATOS                             13   TORRE                         98991340603                                        
03943103920220498001628576129422320820220401532090307010120706706597060811F210540Z00004800000101             EXTMARIA DA CONCEICAO FERREIRA   1973122703    010                                65485000081PEDRO MATOS                             13   TORRE                         98991340603                                        
03943103920220498001628576129422320820220401532100307010120709804020465798M211130Z00004700000101             EXTDOMINGOS HERMOGENES LOPES FILH1975040104    010                                65057748081DEZOITO                                 06   SAO RAIMUNDO                  98984431227                                        
03943103920220498001628281081222320820220401532110307010120700100413231120M211130Z00004200000101             EXTEDSON LINDOSO COSTA           1979120299    010                                65085780104RUA VENEZUELLA QUAD           KM        1    ANJO DA GUARDA                                                                   
03943103920220498001628281081222320820220401532120307010120705002436699955F211130Z00005000000101             EXTANA CLAUDIA BAZOLA CORDEIRO   1971123103    010                                65041877081COSME E DAMIAO                          05   VILA SAO SEBASTIAO            9899642105                                         
03943103920220498001628281081222320820220401532130307010120706400112796486M211150Z00003800000101             EXTJOSEMAR MENDES DE SOUZA       1983091304    010                                65470000081SAO FRANCISCO                           836  AVENIDA PIQUI                 9936391208                                         
03943103920220498001628281081222320820220401532140404020097709608615958478F211130K13704500000101             EXTLIDIA RAQUEL PEREIRA FONSECA F1976062899    010                                65082161008PRINCIPAL RED ANA JANSEN      B         16   ALTO ESPERANCA                98982619377                                        
03943103920220470000701682850022320820220401532150307010120701809242904878F211130Z00002000000101             EXTMAYARA SOUSA GONCALVES        2001081104    010                                65040880081VENANCIO MOREIRA              COROADINHO5    VILA DOS FRADES               98989162041                                        
03943103920220470000701682850022320820220401532160307010120702107773457395F211130Z00002900000101             EXTLAIS GONCALVES DE SOUSA       1992120899    010                                65058538008DOIS                                    5    CIDADE OLIMPICA               98989087147                                        
03943103920220470000701682850022320820220401532170307010120705006474105750F211130Z00002700000101             EXTMARIA CELIA DE JESUS DA SILVA 1994121004    010                                65095000079I                             PICARREIRA12   VILA ESPERANCA                6133152425                                         
03943103920220470000184585330422320820220401532180307010120700001065299804M211130Z00 02800000101             EXTFLAVIO GOES LINHARES DOS SANTO1993060199    010                                65061850999AVENIDA B QUADRA 05                     19   BEQUIMAO                      9832366506                                         
03943103920220470000184585330422320820220401532190307010120700003853285109F211130Z00 01900000101             EXTTHAIS CARDOSO SILVA           2002040801    010                                65058483008JAILSON SOUSA VIANA                     14   CIDADE OLIMPICA               98981255983                                        
03943103920220470000184585330422320820220401532200307010120706403681782180M211130Z00 01700000101             EXTLUCIO CLAITON DE SOUSA BOGEA  2004102404    010                                65090704508EUGÊNIO GARCIA                         03   VILA SARNEY                   98987690624                                        
03943103920220470000184585330422320820220401533010307010120706706558274016F211130Z00 06300000101             EXTMARIA DE JESUS DAVILA         1958071603    010                                65058483008JAILSON SOUSA VIANA           QUADRA 37 10   CIDADE OLÍMPICA              98992032154                                        
03943103920220470000184585330422320820220401533020307010120702202181488710F211130Z00 02100000101             EXTFRANCIELLY TELES ROCHA        2000080104    010                                65047180081TRINTA E UM DE MARCO                    394  VILA PALMEIRA                 98988516700                                        
03943103920220470000184585330422320820220401533030404020097704701040287140F211130K13705200000101             EXTMARIA ANTONIA SANTOS AMORIM   1969091604    010                                65010000081VINTE E OITO DE SETEMBRO                6    JOAO DE DEUS                  98987757662                                        
03943103920220498001627965470822320820220401533040307010120702803622105465M211130Z00003300000101             EXTJOSICLEIA DA CONCEICAO BRITO  1988092203    010                                65057770081QUINZE                                  13   SAO RAIMUNDO                  98992424368                                        
03943103920220498001627965470822320820220401533050307010120706001840738344F211130Z00002600000101             EXTFERNANDA PEREIRA SILVA        1996030501    010                                65080140079TRINTA E UM                   QD        4    VL EMBRATEL                   9888664861                                         
03943103920220498001627965470822320820220401533060307010120702809669337465M211130Z00002300000101             EXTITALO ROGER BARBOSA CARDOSO   1998111304    010                                65040610081FREI CANECA                             86   JORDOA                        98987021438                                        
03943103920220470680129125502422328020220402533070701070056700005634515607M211130Z00003900000101             EXTCARLOS ALBERTO RODRIGUES BOAES1983032704    010                                65085780104TRAVESSA BOM JESUS            NA        26   ANJO DA GUARDA                98981523342                                        
03943103920220470680129125502422328020220402533080307010120700305445241140M211130Z00005300000101             EXTDANIEL OLIVEIRA DA SILVA      1968101304    010                                65055374081QUATRO                                  23   JARDIM SAO CRISTOVAO II       98987712238                                        
03943103920220470680129125502422328020220402533090307010120702806153111665M211130Z00001700000101             EXTMAYCON JONSON LIMA SOUSA      2005011899    010                                65060260081DOS ÍNDIOS                             45   CRUZEIRO DO ANIL              9887324838                                         
03943103920220470680129125502422328020220402533100307010120702806153111665M211130Z00001700000101             EXTMAYCON JONSON LIMA SOUSA      2005011899    010                                65060260081DOS ÍNDIOS                             45   CRUZEIRO DO ANIL              9887324838                                         
03943103920220470680129125502422328020220402533110307010120704505381872618F211130Z00004100000101             EXTMARIA JOSE DOS SANTOS SILVA   1981020803    010                                65091242081PRINCIPAL                               85   VILA MARANHAO                 98991161058                                        
03943103920220470680129125502422328020220402533120307010120704505381872618F211130Z00004100000101             EXTMARIA JOSE DOS SANTOS SILVA   1981020803    010                                65091242081PRINCIPAL                               85   VILA MARANHAO                 98991161058                                        
03943103920220498001627734189322328020220402533130307010120700901996423696M211130Z00006400000101             EXTJOSE ALBINO SANTOS RIBEIRO    1957090403    010                                65047640031DA VITORIA                              29   SANTO ANTONIO                 98983409864                                        
03943103920220498001627734189322328020220402533140307010120700901996423696M211130Z00006400000101             EXTJOSE ALBINO SANTOS RIBEIRO    1957090403    010                                65047640031DA VITORIA                              29   SANTO ANTONIO                 98983409864                                        
03943103920220498001627734189322328020220402533150307010120700901996423696M211130Z00006400000101             EXTJOSE ALBINO SANTOS RIBEIRO    1957090403    010                                65047640031DA VITORIA                              29   SANTO ANTONIO                 98983409864                                        
03943103920220498001627734189322328020220402533160307010120700909975552796F211130Z00005000000101             EXTSANDRA MARIA PIRES REGO       1972031004    010                                65046260081PORTUGAL                                89   VILA PALMEIRA                 98987175464                                        
03943103920220498001627734189322328020220402533170307010120700909975552796F211130Z00005000000101             EXTSANDRA MARIA PIRES REGO       1972031004    010                                65046260081PORTUGAL                                89   VILA PALMEIRA                 98987175464                                        
03943103920220498001627734189322328020220402533180307010120705003248173950F211130Z00003900000101             EXTALCIONE BARBOSA PACHECO       1983012204    010                                65048530081DA PAZ                                  28   PIRAPORA                      98992023767                                        
03943103920220498001627734189322328020220402533190307010120705003248173950F211130Z00003900000101             EXTALCIONE BARBOSA PACHECO       1983012204    010                                65048530081DA PAZ                                  28   PIRAPORA                      98992023767                                        
03943103920220498001627734189322328020220402533200307010120706003399180040F211130Z00002800000101             EXTELIZABETH CRISTINA CAMARA MART1994032604    010                                65090000081RUA SAO SEBASTIAO                       161  SA VIANA                      98983556660                                        
03943103920220498001627734189322328020220402534010307010120707600234030093F211130Z00002200000101             EXTGLEYCE KELLY ABREU DOS SANTOS 1999112703    010                                65047849081DEPUTADA HELENA HELUY                   10   RESIDENCIAL JOAO ALBERTO      98981728093                                        
03943103920220498001627734189322328020220402534020307010120707600234030093F211130Z00002200000101             EXTGLEYCE KELLY ABREU DOS SANTOS 1999112703    010                                65047849081DEPUTADA HELENA HELUY                   10   RESIDENCIAL JOAO ALBERTO      98981728093                                        
03943103920220470000322326410222326820220402534030201010526898002968846878M211130Z00004000000101             EXTGERALDO SILVA                 1981061899    010                                65090000081RUA PADRE MARCOS                        8    COROADINHO                    6133152425                                         
03943103920220470050697236145122320820220402534040307010120704804019199043F211130Z00004700000101             EXTEDNOLIA RODRIGUES ABREU       1974111801    010                                65025760081SANTO EXPEDITO                          27   COREIA                        98988213940                                        
03943103920220470050697236145122320820220402534050307010120706200510772465M211130Z00008000000101             EXTADILSON JOSE COUTINHO         1941042202    010                                65045040081ALMIRANTE TAMANDARE                     221  VILA PALMEIRA                 98987202981                                        
03943103920220470000184585330422320820220402534060404020097700408912033744F211130K13704900000101             EXTJOIDEANE GOMES DA SILVA       1973031404    010                                65043230081DO CAMPO                      A         57   TUNEL DO SACAVEM              98988464061                                        
03943103920220470000184585330422320820220402534070307010139704707721020434F211130Z00 02400000101             EXTJESSICA CRISTINA DE JESUS CAST1997110501    010                                65045350079EMILIO RIBAS                            117  VILA PALMEIRA                 9888034557                                         
03943103920220470000184585330422320820220402534080307010120704707721020434F211130Z00 02400000101             EXTJESSICA CRISTINA DE JESUS CAST1997110501    010                                65045350079EMILIO RIBAS                            117  VILA PALMEIRA                 9888034557                                         
03943103920220470000184585330422320820220402534090307010120898050097124259F500830Z00 02100000101             EXTDEBORA CRISTINA ALVES DE ARAUJ2001031699    010                                65090000081JOSE LOPES SEJOPOLES          SEM INFORM1279 JARDIM PARANAPUNGA            6744444447                                         
03943103920220498001628784267422320820220402534100404020097705002033369752M210750K13702300000101             EXTEDSON CARLOS PEREIRA          1999030799    010                                65130000999R VICENTE JOTA MAIA                     39   CENTRO                        98987530642                                        
03943103920220498001629545195622320820220404534110307010139701405624150031F210960Z00002200000101             EXTSTEFANI KARINE DE OLIVEIRA LEA1999062804    010                                65150000100CORONEL JOSE LEITE                      206  CENTRO                        98970095078                                        
03943103920220498001629545195622320820220404534120307010139702003891242086M211130Z00003000000101             EXTMARCOS PAULO FERREIRA RAMOS   1991042504    010                                65091242081PRINCIPAL                               23   VILA MARANHAO                 98992412623                                        
03943103920220498001629545195622320820220404534130307010139706207538572068M211130Z00006700000101             EXTRAIMUNDO FIGUEIREDO FERREIRA  1955020999    010                                65010560081ISAAC MARTINS                           116  CENTRO                        98988019498                                        
03943103920220470000740040650122320820220404534140307010139700004312017705M210083Z00002400000101             EXTBERLYAN ERLEN TEIXEIRA DE LIMA1997111403    010                                65275000081CENTRINHO                               S/N  POVOADO TURIRANA              98985194284                                        
03943103920220470000740040650122320820220404534150307010139700506797774055F211130Z00004800000101             EXTROSANA MATOS DE ARAUJO        1973082603    010                                65041321081ALEXANDRA TAVARES                       10   SACAVEM                       98991703890                                        
03943103920220470000740040650122320820220404534160307010139702907585030978M211130Z00004100000101             EXTJOSE ALEXANDRE NOVAIS         1981010104    010                                65040530081DOUTOR SANTOS NETO                      111  VILA IVAR SALDANHA            98984570334                                        
03943103920220470000740040650122320820220404534170307010139704708772662132M211130Z00005700000101             EXTLOURIVALDO CASEMIRO SODRE     1965030403    010                                65081700008PARAISO                                 300  RESIDENCIAL PARAISO           98986009241                                        
03943103920220498001600300823222325620220404534180701070080705602401595317F211130Z46306300000101             EXTFRANCISCA DAS CHAGAS SOUZA    1958072903    010                                65036360081IRMAOS CORAGEM                          23   ALEMANHA                      98999611820                                        
03943103920220498001600300823222325620220404534190701070080708103542525234M211130Z46305700000101             EXTPEDRO AFONSO SILVA            1964062904    010                                65082420081DOIS                          A         10   GANCHARIA                     98996032143                                        
03943103920220498001600300823222325620220404534200701070080709200288791831F211130Z46304900000101             EXTVALDINEIDE LIMA PESTANA       1972071304    010                                65045410081EPITACIO CAFETEIRA            A         50   SANTA CRUZ                    98987098848                                        
03943103920220498001600300823222325620220404535010701070080709201275749034F211130Z46309100000101             EXTRAIMUNDA VIEIRA PINTO         1930081203    010                                65025280081DARCY VARGAS                  COREIA DE 11   COREIA                        98985334210                                        
03943103920220498001629006480622325620220404535020701070080705009453414552F211130Z46306300000101             EXTSONIA MARIA SOARES MARQUES    1958111701    010                                65054842081TRINTA E TRES                 QD 58     29   COHATRAC IV                   98981157702                                        
03943103920220498001629006480622325620220404535030701070129708005393318820M211130Z46306700000101             EXTJOSE DE RIBAMAR SILVA FRANCA  1954102404    010                                65046170079NOVA                                    9    ANIL                          98988552233                                        
03943103920220498001629005786922325620220404535040701070080700000486228201F211130Z46307900000101             EXTEUZAMAR COSTA ZAQUEU          1943011899    010                                65035520081R PRIMEIRO DE MAIO                      268  MONTE CASTELO                 9832515808                                         
03943103920220498001629005786922325620220404535050701070080705002030229054M211130Z46306800000101             EXTANTONIO DAVI LIMA             1953061104    010                                65055180081EPITACIO CAFETEIRA            B - QD 19811   JARDIM SAO CRISTOVAO          98982897862                                        
03943103920220498001629005786922325620220404535060701070080705803406517631F211130Z46305800000101             EXTMARIA REGINA DA COSTA SILVA   1963100603    010                                65090575100TRAVESSA TANCREDO NEVES                 28   VILA NOVA REPUBLICA           98981887621                                        
03943103920220498001629005786922325620220404535070701070080705803406517631F211130Z46305800000101             EXTMARIA REGINA DA COSTA SILVA   1963100603    010                                65090575100TRAVESSA TANCREDO NEVES                 28   VILA NOVA REPUBLICA           98981887621                                        
03943103920220498001629005786922325620220404535080701070080706802240769722M211130Z46307900000101             EXTJOSE MENDES REINALDO          1942081004    010                                65058510008BRASIL 1/99998                          08   CIDADE OLIMPICA               98984375419                                        
03943103920220498001629005786922325620220404535090701070080706802240769722M211130Z46307900000101             EXTJOSE MENDES REINALDO          1942081004    010                                65058510008BRASIL 1/99998                          08   CIDADE OLIMPICA               98984375419                                        
03943103920220498001629005786922325620220404535100701070080706803256197929F211130Z46307100000101             EXTROZA NICACIO CARDOZO AZEVEDO  1950050701    010                                65063460081SANTA MARIA                             08   ANGELIM                       98987397516                                        
03943103920220498001629005786922325620220404535110701070080706803256197929F211130Z46307100000101             EXTROZA NICACIO CARDOZO AZEVEDO  1950050701    010                                65063460081SANTA MARIA                             08   ANGELIM                       98987397516                                        
03943103920220498001629005786922325620220404535120701070080708003337465129F211130Z46304300000101             EXTGARDILENE PEREIRA DA SILVA BAR1978082503    010                                65090872081PRINCIPAL                     BL 08     204  MARACANA                      98988215310                                        
03943103920220498001628455364722320820220404535130307010120700102954446416F211130Z00 02900000101             EXTGLEYCE KELLE ALVES DOS SANTOS 1992053002    010                                65082485081DEZESSEIS                               24   VILA MAURO FECURY II          98988149276                                        
03943103920220498001628455364722320820220404535140307010120700102954446416F211130Z00 02900000101             EXTGLEYCE KELLE ALVES DOS SANTOS 1992053002    010                                65082485081DEZESSEIS                               24   VILA MAURO FECURY II          98988149276                                        
03943103920220498001628455364722320820220404535150307010120702509736294540F211130Z00 04800000101             EXTCONCEICAO DE MARIA CAMARA MART1974031001    010                                65080250081MILITANA FERREIRA                       210  SA VIANA                      98982711548                                        
03943103920220498001628455364722320820220404535160307010120702509736294540F211130Z00 04800000101             EXTCONCEICAO DE MARIA CAMARA MART1974031001    010                                65080250081MILITANA FERREIRA                       210  SA VIANA                      98982711548                                        
03943103920220498001628455364722320820220404535170307010120706502379522196F211130Z00 05200000101             EXTSILVIA CRISTINA SANTOS ALVES  1969041801    010                                65058718008NOVA PRINCESA                 A         31   SANTA EFIGENIA                98982342983                                        
03943103920220498001628455364722320820220404535180307010120706502379522196F211130Z00 05200000101             EXTSILVIA CRISTINA SANTOS ALVES  1969041801    010                                65058718008NOVA PRINCESA                 A         31   SANTA EFIGENIA                98982342983                                        
03943103920220498001628455364722320820220404535190307010120708007371297326F211130Z00 06900000101             EXTMARIA FATIMA DE ARAUJO MOREIRA1953020301    010                                65053060081SEBASTIAO CORREIA                       19   COHAB ANIL III                9832456562                                         
03943103920220498001628455364722320820220404535200307010120708007371297326F211130Z00 06900000101             EXTMARIA FATIMA DE ARAUJO MOREIRA1953020301    010                                65053060081SEBASTIAO CORREIA                       19   COHAB ANIL III                9832456562                                         
03943103920220498001627734189322328020220404536010307010120702004353142489F211130Z00001500000101             EXTDAICYANE SILVA E SILVA        2007030399    010                                65040855081TOCANTINS                               12   VILA DOS FRADES               98987007095                                        
03943103920220498001627734189322328020220404536020307010120702004353142489F211130Z00001500000101             EXTDAICYANE SILVA E SILVA        2007030399    010                                65040855081TOCANTINS                               12   VILA DOS FRADES               98987007095                                        
03943103920220498001627734189322328020220404536030307010120703401282459215F211130Z00005900000101             EXTSILVIA CRISTINE FONTOURA BARBO1963011103    010                                65025430081FREI SAMPAIO                            23   LIRA                          98988200415                                        
03943103920220498001627726527522328020220404536040307010120701801240871673F211130Z00003000000101             EXTNATHALIA RIBEIRO COELHO       1992010302    010                                65058848081JOSE GERARDO                  CASA      65   VILA JANAINA                  98981999013                                        
03943103920220498001627726527522328020220404536050307010120701801240871673F211130Z00003000000101             EXTNATHALIA RIBEIRO COELHO       1992010302    010                                65058848081JOSE GERARDO                  CASA      65   VILA JANAINA                  98981999013                                        
03943103920220498001627726527522328020220404536060307010120702101729581595M211130Z00002400000101             EXTTIAGO RODRIGUES               1997100504    010                                65065160008EPITACIO CAFETEIRA                      53   OLHO DAGUA                    98982419860                                        
03943103920220498001627726527522328020220404536070307010120702101729581595M211130Z00002400000101             EXTTIAGO RODRIGUES               1997100504    010                                65065160008EPITACIO CAFETEIRA                      53   OLHO DAGUA                    98982419860                                        
03943103920220498001627726527522328020220404536080307010120702300118940013F211130Z00007000000101             EXTMARINEIDE GOUVEIA COSTA       1952031403    010                                65031450081PROFESSOR NASCIMENTO MORAES             22   FATIMA                        98982441570                                        
03943103920220498001627726527522328020220404536090307010120702300118940013F211130Z00007000000101             EXTMARINEIDE GOUVEIA COSTA       1952031403    010                                65031450081PROFESSOR NASCIMENTO MORAES             22   FATIMA                        98982441570                                        
03943103920220498001627726527522328020220404536100307010120702309122428818F211130Z00004900000101             EXTEDUARDA RODRIGUES PEREIRA     1972050304    010                                65080330081PROFESSOR NASCIMENTO MORAES   A         3    SA VIANA                      98981678015                                        
03943103920220498001627726527522328020220404536110307010120702904504340073M211130Z00006100000101             EXTJOAO AMORIM PEREIRA           1961033001    010                                65066844008MATO GROSSO                             10   CHACARA BRASIL                98987080081                                        
03943103920220498001627726527522328020220404536120307010120704700740235134M211130Z00004000000101             EXTRONALD DOS SANTOS RODRIGUES   1981062503    010                                65090000081JOSE CARLOS MACEIRA           CASA      66   SAO FRANCISCO                 9888581512                                         
03943103920220498001627726527522328020220404536130307010120704700740235134M211130Z00004000000101             EXTRONALD DOS SANTOS RODRIGUES   1981062503    010                                65090000081JOSE CARLOS MACEIRA           CASA      66   SAO FRANCISCO                 9888581512                                         
03943103920220498001627726527522328020220404536140307010120704703700156236F211120Z00003900000101             EXTGLAUCIA CRISTINA SANTOS COUTIN1982111103    010                                65110000081RUA 3 PODERES                           274  J CAMARA                      98988620947                                        
03943103920220498001627726527522328020220404536150307010120704703700156236F211120Z00003900000101             EXTGLAUCIA CRISTINA SANTOS COUTIN1982111103    010                                65110000081RUA 3 PODERES                           274  J CAMARA                      98988620947                                        
03943103920220498001627726527522328020220404536160307010120706506322877193F211130Z00004600000101             EXTMARIA DE FATIMA MARTINS RODRIG1975051703    010                                65058599081NOVA AMERICA                            42   VILA AMERICA                  98988325507                                        
03943103920220498001627726527522328020220404536170307010120706506322877193F211130Z00004600000101             EXTMARIA DE FATIMA MARTINS RODRIG1975051703    010                                65058599081NOVA AMERICA                            42   VILA AMERICA                  98988325507                                        
03943103920220498001627726527522328020220404536180307010120708505331728575M211130Z00004100000101             EXTGEILSON PINHEIRO NOGUEIRA     1980071499    010                                65085000999TRV CEARA                               43   VL IZABEL                     6133152425                                         
03943103920220498001627726527522328020220404536190307010120708505331728575M211130Z00004100000101             EXTGEILSON PINHEIRO NOGUEIRA     1980071499    010                                65085000999TRV CEARA                               43   VL IZABEL                     6133152425                                         
03943103920220498001600457176322323620220404536200307010120700006117393002M211130Z00000800000101             EXTENZO MIGUEL COSTA ROCHA       2013091203    010                                65090082081DA VITORIA                              06   VILA ITAMAR                   98987244778                                        
03943103920220470470778284083022324820220404537010401010104704600131628927F211130K05 04000000101             EXTMARIA CREUSA SILVA ARAUJO     1982030703    010                                        008JULIETA RAMOS                 A         14   VILA NOVA                     98987692220                                        
03943103920220498001600418939722324020220404537020307040127700000478606200F211130K07203400000101             EXTMARIA DAS DORES SILVA GONCALVE1988022299    010                                65046660999SANTOS DUMONT                           18   ANIL                          98992308395                                        
03943103920220498001600418939722324020220404537030307040127700005920858006F211130K07202300000101             EXTMARIANA SALES LACERDA         1998090199    010                                65074850081DOIS                                    22   PLANALTO VINHAIS I            98981750412                                        
03943103920220498001600418939722324020220404537040307040127700509927555458F210750K07204100000101             EXTJACIRENE DE SOUSA DA SILVA LEA1980112604    010                                65130000081143                                     05   MAIOBAO                       98996024714                                        
03943103920220498001600418939722324020220404537050307040127700702955136075M211130K07202400000101             EXTELIAS DE JESUS MENDONCA LIMA  1998010503    010                                65057787081SETE                          RES TIRADE21   RES TIRADENTES                98987379560                                        
03943103920220498001600418939722324020220404537060307040127701803290235071M211130K07204200000101             EXTJEFFERSON RIBAMAR SILVA BRITO 1979120901    010                                65045230079DO CAMPO                                7    TUNEL DO SACAVEM              98999334702                                        
03943103920220498001600418939722324020220404537070307040127702603256875446F211130K07202800000101             EXTVANESSA RIBEIRO SOUSA         1994032403    010                                65036010081AGOSTINHO REIS                          158  APEADOURO                     98988181473                                        
03943103920220498001600418939722324020220404537080307040127703406001278100M211130K07202600000101             EXTWERMESSON DA SILVA FACUNDO    1996011803    010                                65076340081VIRGILIO DOMINGUES 1/873                155  SAO FRANCISCO                 98982666532                                        
03943103920220498001600418939722324020220404537090307040127704804066664342F211130K07201800000101             EXTMICAELLE COSTA PACHECO        2003051599    010                                65090000081DO FIO                                  100  RECANTO VERDE                 9832323232                                         
03943103920220498001600418939722324020220404537100307040127705002068008756F211130K07203300000101             EXTALICE VANIA NOGUEIRA VIEGAS   1989010501    010                                65076560079CATORZE                                 21   SAO FRANCISCO                 2121050000                                         
03943103920220498001600418939722324020220404537110307040127705100454329770F211130K07201900000101             EXTNAELY SILVA CALDAS            2002061901    010                                65091820081DO FIO                                  44   RIO GRANDE                    98984386438                                        
03943103920220498001600418939722324020220404537120307040127706408640945780F211130K07202300000101             EXTREBECA FERREIRA LOPES         1999032799    010                                65072470081H                                       16   PARQUE ATHENAS                98984607742REBECAF999@GMAIL.COM                    
03943103920220498001600418939722324020220404537130307040127707607264051192F211130K07201100000101             EXTEMILLY BEATRIZ ALVES CRUZ     2010090401    010                                65000000999R SENADOR                               43   PONTAL DA ILHA                6133152425                                         
03943103920220498001600418939722324020220404537140307040127709609625331177F211130K07203300000101             EXTNATANNA SARAIVA SERRA         1989032399    010                                65081233081DA FELICIDADE                           12   VILA EMBRATEL                 98987241756                                        
03943103920220498001627806408722326020220404537150204010225206990367170004M211130Z00 05300000101             EXTJOAO BATISTA CAMPOS FREITAS   1968111601    010                                65030320094DO CHAFARIZ                             22   BAIRRO DE FATIMA                                                                 
03943103920220498001627806408722326020220404537160204010225700006189437006F211130Z00 05200000101             EXTMAILDE LIMA                   1969052003    010                                65044370008BRASIL                        AT D PQ TI27   COROADINHO                    98981258000                                        
03943103920220498001627806408722326020220404537170204010225700108945836512F211130Z00 04100000101             EXTMARLUCIA DE OLIVEIRA REGO     1981011404    010                                65040530081DOUTOR SANTOS NETO                      86   VILA IVAR SALDANHA            98970299749                                        
03943103920220498001627806408722326020220404537180204010225700201469407925M211130Z00 01500000101             EXTCRISTONY ANDERSON DURANS GONCA2006092003    010                                65035300081INGLES DE SOUSA               A         22   LIBERDADE                     98988464450                                        
03943103920220498001627806408722326020220404537190204010225700203410735820F211130Z00 06100000101             EXTMARIA DE LOURDES FERREIRA DAMA1960041303    010                                6505801408121 UNID 201                   UND 201   54   CIDADE OPERARIA               99991845870                                        
03943103920220498001627806408722326020220404537200204010225700305445241140M211130Z00 05300000101             EXTDANIEL OLIVEIRA DA SILVA      1968101304    010                                65055374081QUATRO                                  23   JARDIM SAO CRISTOVAO II       98987712238                                        
03943103920220498001627806408722326020220404538010204010225700502536137554F211130Z00 03000000101             EXTLIA KELLY BANDEIRA DE OLIVEIRA1992011501    010                                65083742081MARCO BACELAR                           40   GAPARA                        98984938905                                        
03943103920220498001627806408722326020220404538020204010225701806222801175F211130Z00 02100000101             EXTVALERIA LOANDA CALVET DINIZ   2000090702    010                                65081395081TRINTA E DOIS                           S/N  VILA EMBRATEL                 98983477026                                        
03943103920220498001627806408722326020220404538030204010225702101712156896F211130Z00 02600000101             EXTIANNE COSTA REIS              1995111203    010                                65058230079PRINCIPAL                               43   TAJAÇARI                     6133152425                                         
03943103920220498001627806408722326020220404538040204010225702300134062912F211130Z00 01800000101             EXTPATRICIA REBECA PEREIRA MAGALH2003040503    010                                65053600081C                                       28   COHATRAC I                    6133152425                                         
03943103920220498001627806408722326020220404538050204010225702509370893039F211130Z00 01500000101             EXTLILIAN KAROLINE REIS LIMA     2007032603    010                                65083562081JOTA PIRES                              22   GAPARA                        98966666666                                        
03943103920220498001627806408722326020220404538060204010225703008806468374F211130Z00 05500000101             EXTMEIRE LUCIA VERAS PACHECO     1966081999    010                                65090000081RUA CANADA C QUADRA A         NA        5    ANJO DA GUARDA                                                                   
03943103920220498001627806408722326020220404538070204010225704201739677388F211130Z00 02300000101             EXTIRLAHI SILVA SANTOS           1998110503    010                                65058527081DEZ                           QUADRA 11025   CIDADE OLÍMPICA              98988256909                                        
03943103920220498001627806408722326020220404538080204010225704707721020434F211130Z00 02400000101             EXTJESSICA CRISTINA DE JESUS CAST1997110501    010                                65045350079EMILIO RIBAS                            117  VILA PALMEIRA                 9888034557                                         
03943103920220498001627806408722326020220404538090204010225704808568822142F211120Z00 04600000101             EXTAUREA DE JESUS DIAS VIEIRA    1976021403    010                                6511000010017                            QD17B     22   NOVA TERRA                    9896138385                                         
03943103920220498001627806408722326020220404538100204010225706001840738344F211130Z00 02600000101             EXTFERNANDA PEREIRA SILVA        1996030501    010                                65080140079TRINTA E UM                   QD        4    VL EMBRATEL                   9888664861                                         
03943103920220498001627806408722326020220404538110204010225706003399180040F211130Z00 02800000101             EXTELIZABETH CRISTINA CAMARA MART1994032604    010                                65090000081RUA SAO SEBASTIAO                       161  SA VIANA                      98983556660                                        
03943103920220498001627806408722326020220404538120204010225706200510772465M211130Z00 08000000101             EXTADILSON JOSE COUTINHO         1941042202    010                                65045040081ALMIRANTE TAMANDARE                     221  VILA PALMEIRA                 98987202981                                        
03943103920220498001627806408722326020220404538130204010225898004042077465F211130Z00 00800000101             EXTBRENDA CRISTINA SILVA ALVES   2013061103    010                                65092298100DO POCAO                                30   QUEBRA POTE                   9832410347                                         
03943103920220498001628784267422320820220404538140404020097700607903300368F210750K13706500000101             EXTMARIA REGINA AIRES RIBEIRO    1956110304    010                                65130000081RIO BRANCO                    BOB KENNED01   ARAÇAGY                      98988284536                                        
03943103920220498001628784267422320820220404538150307010120706000845614146M211130Z00006000000101             EXTANTONIO JOSE DOS SANTOS MARTIN1962021801    010                                65130000081PANAQUATIRA                   VILA NAZAR15   PA O DO LUMIAR                98985298903                                        
03943103920220498001628281081222320820220404538160307010120702406530975923F211130Z00004400000101             EXTSILVANA BARROS MARTINS        1977042103    010                                6505774408134                            QUADRA 10610   SAO RAIMUNDO                  98989042212                                        
03943103920220470450531776681022320820220404538170307010120707107812626920M211130Z00005700000101             EXTCARLOS MARQUEZI GUARDA        1964062299    010                                65076420081R HEMETERIO LEITAO            Q         9    SAO FRANCISCO                 2121050000                                         
03943103920220470000740040650122320820220405538180307010139700002097100109F211130Z00001400000101             EXTESTER LAIANE SILVA COUTINHO   2007062504    010                                65057823081TRES                                    8    NOVO HORIZONTE                9832646352                                         
03943103920220470000740040650122320820220405538190307010139702108773249491F211130Z00005400000101             EXTMARILENE DE JESUS COELHO ARAUJ1967111204    010                                65061060094APICUM                        VILA CRIST16   IPASE                         98981942052                                        
03943103920220498001600300823222325620220405538200701070137700009442749808F211130Z46305800000101             EXTMARIA FRANCISCA AMORIM DA SILV1964012904    010                                65058000079SETE                          UN        6    CIDADE OPERARIA                                                                  
03943103920220498001600300823222325620220405539010701070137700608404041163F211130Z46306600000101             EXTMARIA MADALENA FRANCA MARTINS 1955071701    010                                65061670008CONTORNO                                36   RIO ANIL                      98981099007                                        
03943103920220498001600300823222325620220405539020701070129700608404041163F211130Z46306600000101             EXTMARIA MADALENA FRANCA MARTINS 1955071701    010                                65061670008CONTORNO                                36   RIO ANIL                      98981099007                                        
03943103920220498001600300823222325620220405539030701070137705004254075753F211120Z46306100000101             EXTRAIMUNDA VICENTINA DOS SANTOS 1960061903    010                                65110000472AV AMAZONAS VILA SAO LUIS     RESIDENCIA41   VILA SAO LUIS                 98996066689                                        
03943103920220498001600300823222325620220405539040701070129705004254075753F211120Z46306100000101             EXTRAIMUNDA VICENTINA DOS SANTOS 1960061903    010                                65110000472AV AMAZONAS VILA SAO LUIS     RESIDENCIA41   VILA SAO LUIS                 98996066689                                        
03943103920220498001600300823222325620220405539050701070137700009509199103F211130Z46306200000101             EXTIRACI EUZEBIA REIS GOUVEIA    1959071703    010                                65031440081MATA ROMA                               129  FATIMA                        98988624501                                        
03943103920220498001600300823222325620220405539060701070129700009509199103F211130Z46306200000101             EXTIRACI EUZEBIA REIS GOUVEIA    1959071703    010                                65031440081MATA ROMA                               129  FATIMA                        98988624501                                        
03943103920220498001600300823222325620220405539070701070137702400521673426M211130Z46307200000101             EXTARGENOR ANTONIO PINHEIRO      1949090804    010                                65057030081BOM JESUS                               42   JOAO DE DEUS                  98982043217                                        
03943103920220498001600300823222325620220405539080701070080703408276480913F211130Z46304600000101             EXTANA CELIA ALMEIDA FONSECA     1975092702    010                                65080000079DAS PALMEIRAS                           11   ARGOLA E TAMBOR               9899917558                                         
03943103920220498001600300823222325620220405539090701070137705003241068655F211130Z46306900000101             EXTIZABEL SILVA COSTA BORGES     1952070404    010                                65010000100MAR E SOL                               93   VILA LUIZAO                   98987823625                                        
03943103920220498001600300823222325620220405539100701070129705003241068655F211130Z46306900000101             EXTIZABEL SILVA COSTA BORGES     1952070404    010                                65010000100MAR E SOL                               93   VILA LUIZAO                   98987823625                                        
03943103920220498001600300823222325620220405539110701070137700501192824954F211130Z46305300000101             EXTADSILVANA SILVA               1968120503    010                                65085296081UVAS                                    25   ANJO DA GUARDA                98996069184                                        
03943103920220498001600300823222325620220405539120701070137700603910087867F211130Z46306100000101             EXTANA LUCIA AZEVEDO SOUSA       1961033102    010                                65076420081HEMETERIO LEITAO                        523  SAO FRANCISCO                 98988206911                                        
03943103920220498001600300823222325620220405539130701070129702401320722730F211130Z46306400000101             EXTSONIA MARIA MATOS DOS SANTOS  1957071603    010                                65085400081DO JAPAO                                16   ANJO DA GUARDA                98988686850                                        
03943103920220498001600300823222325620220405539140701070137704304576246393F211130Z46307900000101             EXTLAZARA PEREIRA AROUCHA        1943021002    010                                65081255081NOSSA SENHORA DE FATIMA                 5    VILA EMBRATEL                 98988841797                                        
03943103920220498001600300823222325620220405539150701070137708209615899141M211130Z46308600000101             EXTRAIMUNDO BANDEIRA             1936011003    010                                65020260008CAMBOA                        BL 01     102  CAMBOA                        98988033075                                        
03943103920220498001600300823222325620220405539160701070137708908732859718F211130Z46304200000101             EXTIRILENE DOS SANTOS SOUSA      1980010404    010                                65090000081DA UNIAO                      VILA BRASI12   SAO BERNARDO                                                                     
03943103920220498001628455364722320820220405539170307010120700606903584063F211130Z00 02900000101             EXTTAIS CLEIDE SANTOS VIEIRA     1992071399    010                                65000000999TR DA RUA DOIS                          4    GANCHARIA                     6133152425                                         
03943103920220498001628455364722320820220405539180307010120702404065685122F211130Z00 04800000101             EXTSANDRA REGINA CARVALHO ARAGAO 1973051403    010                                65045040008MIRANTE TAMANDARE                       41   VILA PALMEIRA                 6133152425                                         
03943103920220498001628455364722320820220405539190307010120703001877333270M211130Z00 05500000101             EXTMARIO DINIZ DOURADO           1967021799    010                                65046020999R DA UNIAO                              58   SANTO ANTONIO                 6133152425                                         
03943103920220498001628455364722320820220405539200307010120703001877333270M211130Z00 05500000101             EXTMARIO DINIZ DOURADO           1967021799    010                                65046020999R DA UNIAO                              58   SANTO ANTONIO                 6133152425                                         
03943103920220470680129125502422328020220405540010307010120706000374339140F211130Z00001900000101             EXTGABRIELLY DE LIMA DA SILVA    2003010704    010                                65067834507BOA ESPERANCA                           11   DIVINEIA                      98988329569                                        
03943103920220498001627734189322328020220405540020307010120700403970187649F211130Z00005800000101             EXTLUCINEA RIBEIRO               1964032004    010                                65090030081OITO                                    26   VILA ITAMAR                   98989007627                                        
03943103920220498001627734189322328020220405540030307010120700403970187649F211130Z00005800000101             EXTLUCINEA RIBEIRO               1964032004    010                                65090030081OITO                                    26   VILA ITAMAR                   98989007627                                        
03943103920220498001627734189322328020220405540040307010120700807455181180F211130Z00002700000101             EXTTATIANA FERREIRA DOS SANTOS   1995022603    010                                65054375651NORTE 1/99998                 QD 46     3    COHATRAC IV                   98984039367tatiana.98ferreira@gmail.com            
03943103920220498001627734189322328020220405540050307010120700807455181180F211130Z00002700000101             EXTTATIANA FERREIRA DOS SANTOS   1995022603    010                                65054375651NORTE 1/99998                 QD 46     3    COHATRAC IV                   98984039367tatiana.98ferreira@gmail.com            
03943103920220498001627734189322328020220405540060307010120705201496001676F211130Z00002100000101             EXTADRYAN GABRIELY RIBEIRO CASTRO2000121504    010                                65083740081MARIA ROSA BACELAR            QD 17     05   GAPARA                        98987118872                                        
